:08000000803102288731FD2F39
:100EC60022001508F1001408F000080003102100A4
:100ED600131C03140030093D0800F00070082100BF
:100EE6009E009317131408002F009601970198018E
:100EF60099019A019B010800623031008D008F0133
:100F060091010230930092010800873177278731DB
:100F16008731D327873187317F27873187319527D7
:100F26008731080022008E0101308F0090010330C6
:100F360091009201930120308D0021009E019B01BA
:100F46009C019401533095001330960097019A0145
:100F5600990101309800843093009D010800873183
:100F66008827873104308731702787318731692791
:100F76008731003A0319C02FC12FB92F8731632754
:100F860087312E008D1CC82FC92FCE2F2000161496
:100F96002E008D10B52F20001610B52F8031022897
:100FA6002000960197019801F0309100FF309200E1
:100FB600FF309300FF303E00CE00EF30C300F0302C
:100FC600B800E501C401B901CF01BA01C501D001DC
:100FD600FF30BB00FF30C600FF30D100FF30BC0041
:100FE600FF30C700FF30D2000830E8000C303D006B
:0A0FF600C300080020008731B22F6D
:020000040001F9
:0A000E00EC3FFF3F9F3FFF3FFF3F25
:00000001FF
