:08000000803102288731F92F3D
:100EC60001342F0096019701980199019A019B011F
:100ED6000800623031008D008F01910102309300CD
:100EE6009201080087316427873187317F27873150
:100EF60087316C27873108002000960197019801F9
:100F0600F0309100FF309200FF309300FF303E003A
:100F1600CE00FF30C300D030B800E501C401B901EE
:100F2600CF01BA01C501D001FF30BB00FF30C600BA
:100F3600FF30D100FF30BC00FF30C700FF30D200C9
:100F46000830E8000800873175278731200016141D
:100F560096111611961009307202031CB32FB42F86
:100F6600B62FF201F20A01307205F00020001608D1
:100F76007006FE397006960072360139F000F00DE3
:100F860016087006FD39700696007208F0000230E9
:100F9600F036890BCB2F70080139F100F10DF10DF8
:100FA60016087106FB39710696007208F0000330C8
:100FB600F036890BDB2F70080139F100F10DF10DC8
:100FC600F10D16087106F739710696000310F20D39
:100FD6000230F1004530F000AA30890BF02FF00BFB
:100FE600F02FF10BF02FAE2F8031022887316327C7
:0A0FF6008731F20020008731A62F9A
:020000040001F9
:0A000E00EC3FFF3F9F3FFF3FFF3F25
:00000001FF
