:08000000803102288731F92F3D
:100E120001342F0096019701980199019A019B01D3
:100E22000800623031008D008F0191010230930081
:100E32009201080087310A2787318731522787318B
:100E420087311227873187313A2787310800F2002C
:100E5200720821009E00931713131314000021003F
:100E62001318342F352F302F0D08F1000C08F00025
:100E7200080022008E018F019001910192019301DD
:100E82008D0121009E019B019C0194019501960117
:100E920097019A01990101309800803093009D01D9
:100EA20008002000960197019801F0309100FF3070
:100EB2009200FF309300FF303E00CE00FF30C300AF
:100EC200F030B800E501C401B901CF01BA01C50192
:100ED200D001FF30BB00FF30C600FF30D100FF3031
:100EE200BC00FF30C700FF30D2000830E800080025
:100EF20087311B2787312000961116119610161084
:100F020001307B05F300200016087306FE397306D4
:100F120096007B360139F300F30D16087306FD398E
:100F2200730696007B08F3000230F336890B962F86
:100F320073080139F400F40DF40D16087406FB3938
:100F4200740696007B08F3000330F336890BA62F54
:100F520073080139F400F40DF40DF40D160874064B
:100F6200F739740696000310FB0D10307B02031C48
:100F7200BB2FBC2FBE2FFB01FB0A04308731282771
:100F820087317008F3007108F4007408F300F4016B
:100F92007308F7007408F800F901FA01FA30003218
:100FA200890BD02FD82FA630890BD52F00320130D4
:100FB200F3000030F4000030F5000030F600730852
:100FC200F7027408F83B7508F93B7608FA3B770A92
:100FD200031DF52F780A031DF52F790A031DF52F3E
:100FE2007A0A031DF52FF62FD42F812F8031022884
:0E0FF200873109278731FB0020008731792FD6
:020000040001F9
:0A000E00EC3FFF3F9F3FFF3FFF3F25
:00000001FF
