:08000000803102288731EF2F47
:1003860071082100C5007008C4000800710821002A
:10039600C9007008C800080071082100C70070086D
:1003A600C6000800F10071088131F2218131080090
:1003B600640080010131890BDC2900342F0096018D
:1003C6009701980199019A019B010800623031005A
:1003D6008D008F0191010230930092010800F00018
:1003E6002E000F1EF729F829F329700822009A001B
:1003F60008008131E12181318231D7228131813179
:10040600E921813182314222813182318D2281314D
:100416000800F200720821009E00931713131314AC
:10042600000021001318182A192A142A0D08F100B1
:100436000C08F000080068302000E8006808E900B1
:100446006708DF006608DE006930E8006808E0003B
:10045600003083310023823108008131FC21823152
:10046600043082310C22823100302000E6008830D0
:10047600E70082311E228231332A8031022822008F
:100486008E018F0190019101920193018D0121004E
:100496009E019B019C0194019501960197019A0189
:1004A600990101309800843093009D010800F40002
:1004B6007408F2007208F300642A0130F200720830
:1004C600F4077408860087010108031D6B2A6C2A4D
:1004D600602A73087402F000F101F01BF1030800B2
:1004E6007408803AF50080307502031D7C2A0130BD
:1004F600730203187F2A802A8C2A7309F50074096F
:10050600F600F50A0319F60A7508F3007608F400F2
:100516008C2A0800083022009F0080309D0024307D
:100526009E0019309B009C010030F0000030F10065
:100536008131C92182310030F0000030F100813173
:10054600CF2182310030F0000030F1008131C3212B
:1005560082312000EE0108002000A300A101A201C3
:10056600C72A2008FB00FC017B08F2007C08F30088
:100576007A08FD007D08F400833131238231013091
:100586002000A1070030A23D21082307FB007B08BD
:10059600860087010108FC007C08A0002008031DD6
:1005A600D52AD62AB42A0800200096019701980178
:1005B600FF309100FF309200FE309300FE303E0087
:1005C600CE00FF30C300FF30B800E501C401B90119
:1005D600CF01BA01C501D001FF30BB00FF30C60014
:1005E600FF30D100FF30BC00FF30C700FF30D20023
:1005F6000830E8001030A00008002000E3005F0883
:10060600E5005E08E4002100A001A1011E2B643074
:10061600E1006108CE006008E2006208CF006308CE
:100626008331C623833120004E082100A007200015
:100636004F082100A13D200064088400650885005C
:100646001200031D272B282B0A2B2100210820002E
:10065600DF00210020082000DE00080074080319CE
:10066600352B362B3B2B7408031D3A2B3B2B402B8B
:1006760072088131D52183316F2B7408033E8600C1
:100686008701160001040319492B4A2B672B7408AE
:10069600033E86008701403FF500413FF600740A9D
:1006A60086008701403FF700413FF8007808803A0E
:1006B600F9007608803A7902031D632B75087702E4
:1006C6000318662B672B6F2B740A8600870101308F
:1006D600810741310318810A08002000AC006C1C18
:1006E600752B762B7E2B2C08A7002708FA002408EA
:1006F6008231AF2283312000A61B822B832B882BCD
:100706002608AB002508AA008A2BAA01AB01A8017E
:10071600A9019E2B2030F2000030F30020002C08A7
:10072600A7002708F40083313123833101302000EC
:10073600A8070030A93D2908803AA7002B08803A6F
:100746002702031DA82B2A082802031CAB2BAC2B5F
:100756008D2B20006C18B02BB12BB92B2C08A700C1
:100766002708FA0024088231AF22833120002408AA
:1007760082315A22833120002A087007A4002B08F0
:10078600713DA50008002000DD004E0886008701A7
:10079600403FD000413FD1005008840051088500F9
:1007A6001200253A031DD82BD92B7D2C4E08860026
:1007B60087010130810741310318810A2100A20116
:1007C600A3012000EC01ED01FF30EA00FF30EB0051
:1007D6004E0886008701403FD000413FD1005008B7
:1007E6008400510885001200643A0319FB2BFC2B88
:1007F6000D2C4E0886008701403FD000413FD100B6
:1008060050088400510885001200693A031D0C2C1B
:100816000D2C482C4E088600870101308107413196
:100826000318810A4F0886008701010884008501A4
:1008360002308107003FD000013FD1005008D500AB
:100846005108D600890D893B8909D700D800D900FF
:10085600DA00DB00DC005508B0005608B100570886
:10086600B2005808B3005908B4005A08B5005B082E
:10087600B6005C08B7005D0886318C2683312000FF
:100886003108CF003008CE00A02C4E088600870124
:10089600403FD000413FD1005008840051088500F8
:1008A6001200253A031D582C592C722C4E0886002E
:1008B60087010130810741310318810A2530F20092
:1008C6000030F3005D08D0005008F4008331312376
:1008D600833101302000CE000030CF00A02C4E081E
:1008E600860087010130810741310318810ACE0154
:1008F600CF01A02C4E0886008701403FD000413F23
:10090600D10050088400510885000008D200D301A8
:100916005208F2005308F3005D08D4005408F400AE
:1009260083313123833120004E0886008701013050
:10093600810741310318810A6C2C0800F201283026
:10094600860000308700473FF000F01FAB2CAC2C30
:10095600CD2C2000A809A909AA09AB09AC09AD0943
:10096600AE09AF09A80A031DCB2CA90A031DCB2C7F
:10097600AA0A031DCB2CAB0A031DCB2CAC0A031D04
:10098600CB2CAD0A031DCB2CAE0A031DCB2CAF0A14
:10099600F201F20A2030860000308700473FF0005F
:1009A600F01FD62CD72CF62C2000A009A109A209ED
:1009B600A309A409A509A609A709A00A031DF62CDF
:1009C600A10A031DF62CA20A031DF62CA30A031D79
:1009D600F62CA40A031DF62CA50A031DF62CA60A5E
:1009E600031DF62CA70A2000200821042204230454
:1009F60024042504260427040319022D032D562D4D
:100A0600F101F10A122DA035A10DA20DA30DA40D21
:100A1600A50DA60DA70D0130F0007008F107A71F60
:100A2600152D162D062D27082F02031D342D2608F9
:100A36002E02031D342D25082D02031D342D2408F6
:100A46002C02031D342D23082B02031D342D2208EE
:100A56002A02031D342D21082902031D342D2008E6
:100A66002802031C372D382D482D2008A8022108FE
:100A7600A93B2208AA3B2308AB3B2408AC3B25082C
:100A8600AD3B2608AE3B2708AF3BA736A60CA50C08
:100A9600A40CA30CA20CA10CA00C0130F102031DA6
:100AA600552D562D162D720803195A2D5B2D792DAD
:100AB600A809A909AA09AB09AC09AD09AE09AF098C
:100AC600A80A031D792DA90A031D792DAA0A031D5B
:100AD600792DAB0A031D792DAC0A031D792DAD0ABC
:100AE600031D792DAE0A031D792DAF0A20002808B3
:100AF600A0002908A1002A08A2002B08A3002C08A0
:100B0600A4002D08A5002E08A6002F08A70008009F
:100B1600F2012030860000308700473FF000F01FCA
:100B2600952D962DB72D2000A009A109A209A3098C
:100B3600A409A509A609A709A00A031DB52DA10A9E
:100B4600031DB52DA20A031DB52DA30A031DB52D40
:100B5600A40A031DB52DA50A031DB52DA60A031D5E
:100B6600B52DA70AF201F20A283086000030870068
:100B7600473FF000F01FC02DC12DE42D2000A8092D
:100B8600A909AA09AB09AC09AD09AE09AF09A80ABA
:100B9600031DE02DA90A031DE02DAA0A031DE02D61
:100BA600AB0A031DE02DAC0A031DE02DAD0A031DA3
:100BB600E02DAE0A031DE02DAF0A0130F0007008EB
:100BC600F20673308600003087000830F0000030EF
:100BD6001E00F00BEB2D2000200821042204230424
:100BE60024042504260427040319FA2DFB2D572E69
:100BF600F101F10A0A2EA035A10DA20DA30DA40D37
:100C0600A50DA60DA70D0130F0007008F107A71F6E
:100C16000D2E0E2EFE2DF335F40DF50DF60DF70DFA
:100C2600F80DF90DFA0D27082F02031D342E26089C
:100C36002E02031D342E25082D02031D342E2408F2
:100C46002C02031D342E23082B02031D342E2208EA
:100C56002A02031D342E21082902031D342E2008E2
:100C66002802031C372E382E492E2008A8022108F8
:100C7600A93B2208AA3B2308AB3B2408AC3B25082A
:100C8600AD3B2608AE3B2708AF3B7314A736A60C30
:100C9600A50CA40CA30CA20CA10CA00C0130F10213
:100CA600031D562E572E0E2E720803195B2E5C2E30
:100CB6007A2EF309F409F509F609F709F809F9098D
:100CC600FA09F30A031D7A2EF40A031D7A2EF50A91
:100CD600031D7A2EF60A031D7A2EF70A031D7A2EB5
:100CE600F80A031D7A2EF90A031D7A2EFA0A7308EA
:100CF6002000A0007408A1007508A2007608A300D1
:100D06007708A4007808A5007908A6007A08A70045
:100D160008002000BF003008C4003108C5003208B2
:100D2600C6003308C7003408C8003508C9003608AD
:100D3600CA003708CB004430860000308700473FA2
:100D4600B800B81BA72EA92E0130AA2E003020000D
:100D5600B900BA013908C2003A08C3004208430480
:100D66000319B62EB72ED52EC409C509C609C7095B
:100D7600C809C909CA09CB09C40A031DD52EC50A63
:100D8600031DD52EC60A031DD52EC70A031DD52E53
:100D9600C80A031DD52EC90A031DD52ECA0A031D6E
:100DA600D52ECB0A2000EB1BD92EDA2EDE2EFD30F7
:100DB600EC05FF30ED056B08803AB800803038024C
:100DC600031DE72E01306A020318EA2EEB2EF12EE0
:100DD60001302000BD000030BE00F62E20006B085A
:100DE600BE006A08BD00210023082000C1002100C2
:100DF60022082000C00042084304031D032F042FCD
:100E0600082F6C1D072F082F0C2FFF30C007FF304F
:100E1600C13D1F30CC000030CD002100C3017B2F27
:100E2600FF302000CC07FF30CD3D0A30A000A101E5
:100E3600A201A301A401A501A601A7014408A800D7
:100E46004508A9004608AA004708AB004808AC00B8
:100E56004908AD004A08AE004B08AF008431A12412
:100E6600863120002108F4002008F3008231732225
:100E760086317308303E2000B8004C08A43E860038
:100E8600870138088100FF30BD07FF30BE3DFF30C7
:100E9600C007FF30C13D0A30A000A101A201A30195
:100EA600A401A501A601A7014408A8004508A900B8
:100EB6004608AA004708AB004808AC004908AD0040
:100EC6004A08AE004B08AF0085318B2586312000DD
:100ED6002008C4002108C5002208C6002308C70050
:100EE6002408C8002508C9002608CA002708CB0020
:100EF60020004D08803AB80080303802031D852F47
:100F060001304C02031C882F892FB62F200044087D
:100F1600450446044704480449044A044B04031D97
:100F2600952F962F132F3E08803AB800803038024E
:100F3600031D9F2F01303D020318A22FA32F132F4D
:100F460020004108803AB80080303802031DAD2FDA
:100F560001304002031CB02FB12FB62F2000EC1831
:100F6600B52FB62F132F200042084304031DBC2FB4
:100F7600BD2FC12F6C1DC02FC12FDC2FFF30CC071A
:100F8600FF30CD3D42084304031DCA2FCB2FD02F7F
:100F96002B30BB000030BC00D42F2D30BB000030FE
:100FA600BC003B08B8004C08A43E86008701380800
:100FB60081004C08A43EB8003808A4004108A600E9
:100FC6004008A5003F08833170238631200025089C
:100FD600B1002408B00008002000EA01EB01EC0192
:100FE600ED01EE01A030840000308500243081310F
:100FF600DB21873120008231302A52346534733444
:1010060075346C34743420346F346634203463346D
:101016006F346E34763465347234733469346F34B5
:101026006E3420343D342034253464340D340A348F
:101036002C342034763461346C34753465345F3442
:0810460070346F34743400347F
:020000040001F9
:0A000E00EC3FFF3F9F3FFF3FFF3F25
:00000001FF
