:08000000803102288731FC2F3A
:100EC60020000C0E890C013908002F0096019701AD
:100ED600980199019A019B010800623031008D004A
:100EE6008F01910102309300920108008731682733
:100EF600873187319D2787318731702787310800F1
:100F0600873163278731F0007008F20072080319F1
:100F16008D2F8E2F962F7508031D922F932F962FA8
:100F2600F101F10A972FF1017208F0007008F5003F
:100F3600710808002000960197019801F030910091
:100F4600FF309200FF309300FF303E00CE00FF30AE
:100F5600C300D030B800E501C401B901CF01BA0120
:100F6600C501D001FF30BB00FF30C600FF30D10005
:100F7600FF30BC00FF30C700FF30D2000830E80069
:100F86000800873179278731200016140230F400D3
:100F96004530F300AA30890BCE2FF30BCE2FF40B7E
:100FA600CE2F20008C1AD82FDB2F20009615DD2F90
:100FB60020009611873183278731003A0319E42FE1
:100FC600E52FF12F03102000161C03140318EC2F35
:100FD600EF2F20001614F12F200016101130F30009
:100FE6003A30890BF42FF30BF42F0032D42F8031D3
:0A0FF6000228F50120008731C42F06
:020000040001F9
:0A000E00EC3FFF3F9F3FFF3FFF3F25
:00000001FF
