:08000000803102288731F92F3D
:100EC6002F0096019701980199019A019B0108004C
:100ED600623031008D008F01910102309300920142
:100EE60008008731632787318731A027873187310B
:100EF6006B27873108000130F0070030F13D0030E4
:100F0600F23D0030F33D7308031D942F7208031D54
:100F1600942F883070021330713B031C932F942F4B
:100F26009E2F0030F3000030F2000030F100003058
:100F3600F00001309F2F0030080020009601970135
:100F46009801F0309100FF309200FF309300FF309F
:100F56003E00CE00FF30C300D030B800E501C4012A
:100F6600B901CF01BA01C501D001FF30BB00FF3086
:100F7600C600FF30D100FF30BC00FF30C700FF3095
:100F8600D2000830E800080087317427873187319E
:100F96007E278731003A0319D12FD22FDE2F031077
:100FA6002000161D03140318D92FDC2F2000161558
:100FB600DE2F2000161120008C1AE22FE32FCA2FF5
:100FC6000310161C03140318E92FEC2F2000161427
:100FD600EE2F20001610A330F4005530890BF12FA8
:100FE600F40BF12F0000CA2F80310228F001F10125
:0A0FF600F201F30120008731C72F3C
:020000040001F9
:0A000E00EC3FFF3F9F3FFF3FFF3F25
:00000001FF
